{
  "abi": [
    {
      "inputs": [
        {
          "internalType": "address",
          "name": "_assetOwner",
          "type": "address"
        },
        {
          "internalType": "string",
          "name": "_uri",
          "type": "string"
        },
        {
          "internalType": "address",
          "name": "_market",
          "type": "address"
        }
      ],
      "stateMutability": "nonpayable",
      "type": "constructor"
    },
    {
      "anonymous": false,
      "inputs": [
        {
          "indexed": true,
          "internalType": "address",
          "name": "account",
          "type": "address"
        },
        {
          "indexed": true,
          "internalType": "address",
          "name": "operator",
          "type": "address"
        },
        {
          "indexed": false,
          "internalType": "bool",
          "name": "approved",
          "type": "bool"
        }
      ],
      "name": "ApprovalForAll",
      "type": "event"
    },
    {
      "anonymous": false,
      "inputs": [
        {
          "indexed": false,
          "internalType": "string",
          "name": "uri",
          "type": "string"
        }
      ],
      "name": "MetaDataCreated",
      "type": "event"
    },
    {
      "anonymous": false,
      "inputs": [
        {
          "indexed": false,
          "internalType": "string",
          "name": "uri",
          "type": "string"
        }
      ],
      "name": "MetaDataUpdated",
      "type": "event"
    },
    {
      "anonymous": false,
      "inputs": [
        {
          "indexed": true,
          "internalType": "address",
          "name": "operator",
          "type": "address"
        },
        {
          "indexed": true,
          "internalType": "address",
          "name": "from",
          "type": "address"
        },
        {
          "indexed": true,
          "internalType": "address",
          "name": "to",
          "type": "address"
        },
        {
          "indexed": false,
          "internalType": "uint256[]",
          "name": "ids",
          "type": "uint256[]"
        },
        {
          "indexed": false,
          "internalType": "uint256[]",
          "name": "values",
          "type": "uint256[]"
        }
      ],
      "name": "TransferBatch",
      "type": "event"
    },
    {
      "anonymous": false,
      "inputs": [
        {
          "indexed": true,
          "internalType": "address",
          "name": "operator",
          "type": "address"
        },
        {
          "indexed": true,
          "internalType": "address",
          "name": "from",
          "type": "address"
        },
        {
          "indexed": true,
          "internalType": "address",
          "name": "to",
          "type": "address"
        },
        {
          "indexed": false,
          "internalType": "uint256",
          "name": "id",
          "type": "uint256"
        },
        {
          "indexed": false,
          "internalType": "uint256",
          "name": "value",
          "type": "uint256"
        }
      ],
      "name": "TransferSingle",
      "type": "event"
    },
    {
      "anonymous": false,
      "inputs": [
        {
          "indexed": false,
          "internalType": "string",
          "name": "value",
          "type": "string"
        },
        {
          "indexed": true,
          "internalType": "uint256",
          "name": "id",
          "type": "uint256"
        }
      ],
      "name": "URI",
      "type": "event"
    },
    {
      "inputs": [],
      "name": "IP",
      "outputs": [
        {
          "internalType": "uint8",
          "name": "",
          "type": "uint8"
        }
      ],
      "stateMutability": "view",
      "type": "function"
    },
    {
      "inputs": [],
      "name": "LICENSE",
      "outputs": [
        {
          "internalType": "uint8",
          "name": "",
          "type": "uint8"
        }
      ],
      "stateMutability": "view",
      "type": "function"
    },
    {
      "inputs": [],
      "name": "availableLicenses",
      "outputs": [
        {
          "internalType": "uint256",
          "name": "",
          "type": "uint256"
        }
      ],
      "stateMutability": "view",
      "type": "function"
    },
    {
      "inputs": [
        {
          "internalType": "address",
          "name": "account",
          "type": "address"
        },
        {
          "internalType": "uint256",
          "name": "id",
          "type": "uint256"
        }
      ],
      "name": "balanceOf",
      "outputs": [
        {
          "internalType": "uint256",
          "name": "",
          "type": "uint256"
        }
      ],
      "stateMutability": "view",
      "type": "function"
    },
    {
      "inputs": [
        {
          "internalType": "address[]",
          "name": "accounts",
          "type": "address[]"
        },
        {
          "internalType": "uint256[]",
          "name": "ids",
          "type": "uint256[]"
        }
      ],
      "name": "balanceOfBatch",
      "outputs": [
        {
          "internalType": "uint256[]",
          "name": "",
          "type": "uint256[]"
        }
      ],
      "stateMutability": "view",
      "type": "function"
    },
    {
      "inputs": [
        {
          "internalType": "address",
          "name": "account",
          "type": "address"
        },
        {
          "internalType": "address",
          "name": "operator",
          "type": "address"
        }
      ],
      "name": "isApprovedForAll",
      "outputs": [
        {
          "internalType": "bool",
          "name": "",
          "type": "bool"
        }
      ],
      "stateMutability": "view",
      "type": "function"
    },
    {
      "inputs": [],
      "name": "owner",
      "outputs": [
        {
          "internalType": "address",
          "name": "",
          "type": "address"
        }
      ],
      "stateMutability": "view",
      "type": "function"
    },
    {
      "inputs": [
        {
          "internalType": "uint256",
          "name": "_licenseQty",
          "type": "uint256"
        },
        {
          "internalType": "uint256",
          "name": "_licensePrice",
          "type": "uint256"
        },
        {
          "internalType": "bool",
          "name": "_isIPForSale",
          "type": "bool"
        },
        {
          "internalType": "uint256",
          "name": "_ipPrice",
          "type": "uint256"
        }
      ],
      "name": "registerWithMarket",
      "outputs": [],
      "stateMutability": "nonpayable",
      "type": "function"
    },
    {
      "inputs": [
        {
          "internalType": "address",
          "name": "from",
          "type": "address"
        },
        {
          "internalType": "address",
          "name": "to",
          "type": "address"
        },
        {
          "internalType": "uint256[]",
          "name": "ids",
          "type": "uint256[]"
        },
        {
          "internalType": "uint256[]",
          "name": "amounts",
          "type": "uint256[]"
        },
        {
          "internalType": "bytes",
          "name": "data",
          "type": "bytes"
        }
      ],
      "name": "safeBatchTransferFrom",
      "outputs": [],
      "stateMutability": "nonpayable",
      "type": "function"
    },
    {
      "inputs": [
        {
          "internalType": "address",
          "name": "from",
          "type": "address"
        },
        {
          "internalType": "address",
          "name": "to",
          "type": "address"
        },
        {
          "internalType": "uint256",
          "name": "id",
          "type": "uint256"
        },
        {
          "internalType": "uint256",
          "name": "amount",
          "type": "uint256"
        },
        {
          "internalType": "bytes",
          "name": "data",
          "type": "bytes"
        }
      ],
      "name": "safeTransferFrom",
      "outputs": [],
      "stateMutability": "nonpayable",
      "type": "function"
    },
    {
      "inputs": [
        {
          "internalType": "address",
          "name": "operator",
          "type": "address"
        },
        {
          "internalType": "bool",
          "name": "approved",
          "type": "bool"
        }
      ],
      "name": "setApprovalForAll",
      "outputs": [],
      "stateMutability": "nonpayable",
      "type": "function"
    },
    {
      "inputs": [
        {
          "internalType": "bytes4",
          "name": "interfaceId",
          "type": "bytes4"
        }
      ],
      "name": "supportsInterface",
      "outputs": [
        {
          "internalType": "bool",
          "name": "",
          "type": "bool"
        }
      ],
      "stateMutability": "view",
      "type": "function"
    },
    {
      "inputs": [
        {
          "internalType": "string",
          "name": "_uri",
          "type": "string"
        }
      ],
      "name": "updateMetaDataURI",
      "outputs": [],
      "stateMutability": "nonpayable",
      "type": "function"
    },
    {
      "inputs": [
        {
          "internalType": "uint256",
          "name": "_licensePrice",
          "type": "uint256"
        },
        {
          "internalType": "bool",
          "name": "_isIPForSale",
          "type": "bool"
        },
        {
          "internalType": "uint256",
          "name": "_ipPrice",
          "type": "uint256"
        }
      ],
      "name": "updateWithMarket",
      "outputs": [],
      "stateMutability": "nonpayable",
      "type": "function"
    },
    {
      "inputs": [
        {
          "internalType": "uint256",
          "name": "",
          "type": "uint256"
        }
      ],
      "name": "uri",
      "outputs": [
        {
          "internalType": "string",
          "name": "",
          "type": "string"
        }
      ],
      "stateMutability": "view",
      "type": "function"
    }
  ],
  "bytecode": {
    "object": "0x60806040523480156200001157600080fd5b50604051620024cb380380620024cb833981016040819052620000349162000625565b816200004081620000e5565b506001600355600480546001600160a01b038086166001600160a01b03199283161790925560058054928416929091169190911790556040517f42bac343e441d9cb3301eed5a2595501a09159244b179d935dbb97b02c9b0d8490620000a89084906200071c565b60405180910390a1600454604080516020810190915260008152620000dc916001600160a01b0316906001908190620000f7565b505050620009ec565b6002620000f38282620007c3565b5050565b6001600160a01b0384166200015d5760405162461bcd60e51b815260206004820152602160248201527f455243313135353a206d696e7420746f20746865207a65726f206164647265736044820152607360f81b60648201526084015b60405180910390fd5b3360006200016b856200022a565b905060006200017a856200022a565b90506000868152602081815260408083206001600160a01b038b16845290915281208054879290620001ae9084906200088f565b909155505060408051878152602081018790526001600160a01b03808a1692600092918716917fc3d58168c5ae7397731d063d5bbf3d657854427343f4c083240f7aacaa2d0f62910160405180910390a4620002108360008985858962000280565b6200022183600089898989620002e0565b50505050505050565b60408051600180825281830190925260609160009190602080830190803683370190505090508281600081518110620002675762000267620008b7565b602090810291909101015292915050565b505050505050565b600160ff16836000815181106200029b576200029b620008b7565b6020026020010151036200027857600480546001600160a01b0319166001600160a01b038616179055620002d285876000620004ac565b6200027884876001620004ac565b620002ff846001600160a01b03166200058e60201b6200088c1760201c565b15620002785760405163f23a6e6160e01b81526001600160a01b0385169063f23a6e61906200033b9089908990889088908890600401620008cd565b6020604051808303816000875af192505050801562000379575060408051601f3d908101601f19168201909252620003769181019062000914565b60015b62000439576200038862000940565b806308c379a003620003c857506200039f6200095d565b80620003ac5750620003ca565b8060405162461bcd60e51b81526004016200015491906200071c565b505b60405162461bcd60e51b815260206004820152603460248201527f455243313135353a207472616e7366657220746f206e6f6e204552433131353560448201527f526563656976657220696d706c656d656e746572000000000000000000000000606482015260840162000154565b6001600160e01b0319811663f23a6e6160e01b14620002215760405162461bcd60e51b815260206004820152602860248201527f455243313135353a204552433131353552656365697665722072656a656374656044820152676420746f6b656e7360c01b606482015260840162000154565b816001600160a01b0316836001600160a01b031603620005215760405162461bcd60e51b815260206004820152602960248201527f455243313135353a2073657474696e6720617070726f76616c20737461747573604482015268103337b91039b2b63360b91b606482015260840162000154565b6001600160a01b03838116600081815260016020908152604080832094871680845294825291829020805460ff191686151590811790915591519182527f17307eab39ab6107e8899845ad3d59bd9653f200f220920489ca2b5937696c31910160405180910390a3505050565b6001600160a01b03163b151590565b80516001600160a01b0381168114620005b557600080fd5b919050565b634e487b7160e01b600052604160045260246000fd5b601f8201601f191681016001600160401b0381118282101715620005f857620005f8620005ba565b6040525050565b60005b838110156200061c57818101518382015260200162000602565b50506000910152565b6000806000606084860312156200063b57600080fd5b62000646846200059d565b60208501519093506001600160401b03808211156200066457600080fd5b818601915086601f8301126200067957600080fd5b8151818111156200068e576200068e620005ba565b6040519150620006a9601f8201601f191660200183620005d0565b808252876020828501011115620006bf57600080fd5b620006d2816020840160208601620005ff565b509250620006e59050604085016200059d565b90509250925092565b6000815180845262000708816020860160208601620005ff565b601f01601f19169290920160200192915050565b602081526000620007316020830184620006ee565b9392505050565b600181811c908216806200074d57607f821691505b6020821081036200076e57634e487b7160e01b600052602260045260246000fd5b50919050565b601f821115620007be57600081815260208120601f850160051c810160208610156200079d5750805b601f850160051c820191505b818110156200027857828155600101620007a9565b505050565b81516001600160401b03811115620007df57620007df620005ba565b620007f781620007f0845462000738565b8462000774565b602080601f8311600181146200082f5760008415620008165750858301515b600019600386901b1c1916600185901b17855562000278565b600085815260208120601f198616915b8281101562000860578886015182559484019460019091019084016200083f565b50858210156200087f5787850151600019600388901b60f8161c191681555b5050505050600190811b01905550565b80820180821115620008b157634e487b7160e01b600052601160045260246000fd5b92915050565b634e487b7160e01b600052603260045260246000fd5b6001600160a01b03868116825285166020820152604081018490526060810183905260a0608082018190526000906200090990830184620006ee565b979650505050505050565b6000602082840312156200092757600080fd5b81516001600160e01b0319811681146200073157600080fd5b600060033d11156200095a5760046000803e5060005160e01c5b90565b600060443d10156200096c5790565b6040516003193d81016004833e81513d6001600160401b0380831160248401831017156200099c57505050505090565b8285019150815181811115620009b55750505050505090565b843d8701016020828501011115620009d05750505050505090565b620009e160208286010187620005d0565b509095945050505050565b611acf80620009fc6000396000f3fe608060405234801561001057600080fd5b50600436106100f45760003560e01c80632eb2c2d6116100975780638da5cb5b116100665780638da5cb5b146101fa578063a22cb46514610215578063e985e9c514610228578063f242432a1461026457600080fd5b80632eb2c2d6146101ac57806340c9f51d146101bf5780634563dbb4146101d25780634e1273f4146101da57600080fd5b80630a912fc4116100d35780630a912fc4146101575780630e89341c1461017157806318da5649146101915780631a4985051461019957600080fd5b8062fdd58e146100f957806301ffc9a71461011f5780630581a72714610142575b600080fd5b61010c610107366004611099565b610277565b6040519081526020015b60405180910390f35b61013261012d3660046110dc565b610311565b6040519015158152602001610116565b610155610150366004611100565b610361565b005b61015f600281565b60405160ff9091168152602001610116565b61018461017f366004611172565b610407565b60405161011691906111d1565b61015f600181565b6101556101a73660046111f4565b61049b565b6101556101ba366004611375565b610537565b6101556101cd36600461141f565b6105ce565b61010c6106ad565b6101ed6101e836600461145c565b6106cc565b6040516101169190611562565b6004546040516001600160a01b039091168152602001610116565b610155610223366004611575565b6107f6565b6101326102363660046115a8565b6001600160a01b03918216600090815260016020908152604080832093909416825291909152205460ff1690565b6101556102723660046115d2565b610805565b60006001600160a01b0383166102e85760405162461bcd60e51b815260206004820152602b60248201527f455243313135353a2062616c616e636520717565727920666f7220746865207a60448201526a65726f206164647265737360a81b60648201526084015b60405180910390fd5b506000818152602081815260408083206001600160a01b03861684529091529020545b92915050565b60006001600160e01b03198216636cdb3d1360e11b148061034257506001600160e01b031982166303a24d0760e21b145b8061030b57506301ffc9a760e01b6001600160e01b031983161461030b565b6004546001600160a01b0316331461038b5760405162461bcd60e51b81526004016102df90611637565b6103ca82828080601f01602080910402602001604051908101604052809392919081815260200183838082843760009201919091525061089b92505050565b7f72bc4c7d7a54af5a15609cb88499661ca588a00068882b19b3bb4c10f2f48f3a82826040516103fb929190611662565b60405180910390a15050565b60606002805461041690611691565b80601f016020809104026020016040519081016040528092919081815260200182805461044290611691565b801561048f5780601f106104645761010080835404028352916020019161048f565b820191906000526020600020905b81548152906001019060200180831161047257829003601f168201915b50505050509050919050565b6004546001600160a01b031633146104c55760405162461bcd60e51b81526004016102df90611637565b600554604051633456b6ab60e21b8152600481018590528315156024820152604481018390526001600160a01b039091169063d15adaac90606401600060405180830381600087803b15801561051a57600080fd5b505af115801561052e573d6000803e3d6000fd5b50505050505050565b6001600160a01b03851633148061055357506105538533610236565b6105ba5760405162461bcd60e51b815260206004820152603260248201527f455243313135353a207472616e736665722063616c6c6572206973206e6f74206044820152711bdddb995c881b9bdc88185c1c1c9bdd995960721b60648201526084016102df565b6105c785858585856108a7565b5050505050565b6004546001600160a01b031633146105f85760405162461bcd60e51b81526004016102df90611637565b600454604080516020810190915260008152610622916001600160a01b0316906002908790610a92565b6005546040516322e75a5b60e21b8152600481018590528315156024820152604481018390526001600160a01b0390911690638b9d696c90606401600060405180830381600087803b15801561067757600080fd5b505af115801561068b573d6000803e3d6000fd5b50506005546106a792506001600160a01b0316905060016107f6565b50505050565b6004546000906106c7906001600160a01b03166002610277565b905090565b606081518351146107315760405162461bcd60e51b815260206004820152602960248201527f455243313135353a206163636f756e747320616e6420696473206c656e677468604482015268040dad2e6dac2e8c6d60bb1b60648201526084016102df565b6000835167ffffffffffffffff81111561074d5761074d611229565b604051908082528060200260200182016040528015610776578160200160208202803683370190505b50905060005b84518110156107ee576107c185828151811061079a5761079a6116cb565b60200260200101518583815181106107b4576107b46116cb565b6020026020010151610277565b8282815181106107d3576107d36116cb565b60209081029190910101526107e7816116f7565b905061077c565b509392505050565b610801338383610bac565b5050565b6001600160a01b03851633148061082157506108218533610236565b61087f5760405162461bcd60e51b815260206004820152602960248201527f455243313135353a2063616c6c6572206973206e6f74206f776e6572206e6f7260448201526808185c1c1c9bdd995960ba1b60648201526084016102df565b6105c78585858585610c8c565b6001600160a01b03163b151590565b6002610801828261175b565b81518351146109095760405162461bcd60e51b815260206004820152602860248201527f455243313135353a2069647320616e6420616d6f756e7473206c656e677468206044820152670dad2e6dac2e8c6d60c31b60648201526084016102df565b6001600160a01b03841661092f5760405162461bcd60e51b81526004016102df9061181b565b3360005b8451811015610a16576000858281518110610950576109506116cb565b60200260200101519050600085838151811061096e5761096e6116cb565b602090810291909101810151600084815280835260408082206001600160a01b038e1683529093529190912054909150818110156109be5760405162461bcd60e51b81526004016102df90611860565b6000838152602081815260408083206001600160a01b038e8116855292528083208585039055908b168252812080548492906109fb9084906118aa565b9250508190555050505080610a0f906116f7565b9050610933565b50846001600160a01b0316866001600160a01b0316826001600160a01b03167f4a39dc06d4c0dbc64b70af90fd698a233a518aa5d07e595d983b8c0526c8f7fb8787604051610a669291906118bd565b60405180910390a4610a7c818787878787610dc4565b610a8a818787878787610e1c565b505050505050565b6001600160a01b038416610af25760405162461bcd60e51b815260206004820152602160248201527f455243313135353a206d696e7420746f20746865207a65726f206164647265736044820152607360f81b60648201526084016102df565b336000610afe85610f77565b90506000610b0b85610f77565b90506000868152602081815260408083206001600160a01b038b16845290915281208054879290610b3d9084906118aa565b909155505060408051878152602081018790526001600160a01b03808a1692600092918716917fc3d58168c5ae7397731d063d5bbf3d657854427343f4c083240f7aacaa2d0f62910160405180910390a4610b9d83600089858589610dc4565b61052e83600089898989610fc2565b816001600160a01b0316836001600160a01b031603610c1f5760405162461bcd60e51b815260206004820152602960248201527f455243313135353a2073657474696e6720617070726f76616c20737461747573604482015268103337b91039b2b63360b91b60648201526084016102df565b6001600160a01b03838116600081815260016020908152604080832094871680845294825291829020805460ff191686151590811790915591519182527f17307eab39ab6107e8899845ad3d59bd9653f200f220920489ca2b5937696c31910160405180910390a3505050565b6001600160a01b038416610cb25760405162461bcd60e51b81526004016102df9061181b565b336000610cbe85610f77565b90506000610ccb85610f77565b90506000868152602081815260408083206001600160a01b038c16845290915290205485811015610d0e5760405162461bcd60e51b81526004016102df90611860565b6000878152602081815260408083206001600160a01b038d8116855292528083208985039055908a16825281208054889290610d4b9084906118aa565b909155505060408051888152602081018890526001600160a01b03808b16928c821692918816917fc3d58168c5ae7397731d063d5bbf3d657854427343f4c083240f7aacaa2d0f62910160405180910390a4610dab848a8a86868a610dc4565b610db9848a8a8a8a8a610fc2565b505050505050505050565b600160ff1683600081518110610ddc57610ddc6116cb565b602002602001015103610a8a57600480546001600160a01b0319166001600160a01b038616179055610e1085876000610bac565b610a8a84876001610bac565b6001600160a01b0384163b15610a8a5760405163bc197c8160e01b81526001600160a01b0385169063bc197c8190610e6090899089908890889088906004016118eb565b6020604051808303816000875af1925050508015610e9b575060408051601f3d908101601f19168201909252610e9891810190611949565b60015b610f4757610ea7611966565b806308c379a003610ee05750610ebb611982565b80610ec65750610ee2565b8060405162461bcd60e51b81526004016102df91906111d1565b505b60405162461bcd60e51b815260206004820152603460248201527f455243313135353a207472616e7366657220746f206e6f6e20455243313135356044820152732932b1b2b4bb32b91034b6b83632b6b2b73a32b960611b60648201526084016102df565b6001600160e01b0319811663bc197c8160e01b1461052e5760405162461bcd60e51b81526004016102df90611a0c565b60408051600180825281830190925260609160009190602080830190803683370190505090508281600081518110610fb157610fb16116cb565b602090810291909101015292915050565b6001600160a01b0384163b15610a8a5760405163f23a6e6160e01b81526001600160a01b0385169063f23a6e61906110069089908990889088908890600401611a54565b6020604051808303816000875af1925050508015611041575060408051601f3d908101601f1916820190925261103e91810190611949565b60015b61104d57610ea7611966565b6001600160e01b0319811663f23a6e6160e01b1461052e5760405162461bcd60e51b81526004016102df90611a0c565b80356001600160a01b038116811461109457600080fd5b919050565b600080604083850312156110ac57600080fd5b6110b58361107d565b946020939093013593505050565b6001600160e01b0319811681146110d957600080fd5b50565b6000602082840312156110ee57600080fd5b81356110f9816110c3565b9392505050565b6000806020838503121561111357600080fd5b823567ffffffffffffffff8082111561112b57600080fd5b818501915085601f83011261113f57600080fd5b81358181111561114e57600080fd5b86602082850101111561116057600080fd5b60209290920196919550909350505050565b60006020828403121561118457600080fd5b5035919050565b6000815180845260005b818110156111b157602081850181015186830182015201611195565b506000602082860101526020601f19601f83011685010191505092915050565b6020815260006110f9602083018461118b565b8035801515811461109457600080fd5b60008060006060848603121561120957600080fd5b83359250611219602085016111e4565b9150604084013590509250925092565b634e487b7160e01b600052604160045260246000fd5b601f8201601f1916810167ffffffffffffffff8111828210171561126557611265611229565b6040525050565b600067ffffffffffffffff82111561128657611286611229565b5060051b60200190565b600082601f8301126112a157600080fd5b813560206112ae8261126c565b6040516112bb828261123f565b83815260059390931b85018201928281019150868411156112db57600080fd5b8286015b848110156112f657803583529183019183016112df565b509695505050505050565b600082601f83011261131257600080fd5b813567ffffffffffffffff81111561132c5761132c611229565b604051611343601f8301601f19166020018261123f565b81815284602083860101111561135857600080fd5b816020850160208301376000918101602001919091529392505050565b600080600080600060a0868803121561138d57600080fd5b6113968661107d565b94506113a46020870161107d565b9350604086013567ffffffffffffffff808211156113c157600080fd5b6113cd89838a01611290565b945060608801359150808211156113e357600080fd5b6113ef89838a01611290565b9350608088013591508082111561140557600080fd5b5061141288828901611301565b9150509295509295909350565b6000806000806080858703121561143557600080fd5b843593506020850135925061144c604086016111e4565b9396929550929360600135925050565b6000806040838503121561146f57600080fd5b823567ffffffffffffffff8082111561148757600080fd5b818501915085601f83011261149b57600080fd5b813560206114a88261126c565b6040516114b5828261123f565b83815260059390931b85018201928281019150898411156114d557600080fd5b948201945b838610156114fa576114eb8661107d565b825294820194908201906114da565b9650508601359250508082111561151057600080fd5b5061151d85828601611290565b9150509250929050565b600081518084526020808501945080840160005b838110156115575781518752958201959082019060010161153b565b509495945050505050565b6020815260006110f96020830184611527565b6000806040838503121561158857600080fd5b6115918361107d565b915061159f602084016111e4565b90509250929050565b600080604083850312156115bb57600080fd5b6115c48361107d565b915061159f6020840161107d565b600080600080600060a086880312156115ea57600080fd5b6115f38661107d565b94506116016020870161107d565b93506040860135925060608601359150608086013567ffffffffffffffff81111561162b57600080fd5b61141288828901611301565b60208082526011908201527024a81d103737ba103a34329037bbb732b960791b604082015260600190565b60208152816020820152818360408301376000818301604090810191909152601f909201601f19160101919050565b600181811c908216806116a557607f821691505b6020821081036116c557634e487b7160e01b600052602260045260246000fd5b50919050565b634e487b7160e01b600052603260045260246000fd5b634e487b7160e01b600052601160045260246000fd5b600060018201611709576117096116e1565b5060010190565b601f82111561175657600081815260208120601f850160051c810160208610156117375750805b601f850160051c820191505b81811015610a8a57828155600101611743565b505050565b815167ffffffffffffffff81111561177557611775611229565b611789816117838454611691565b84611710565b602080601f8311600181146117be57600084156117a65750858301515b600019600386901b1c1916600185901b178555610a8a565b600085815260208120601f198616915b828110156117ed578886015182559484019460019091019084016117ce565b508582101561180b5787850151600019600388901b60f8161c191681555b5050505050600190811b01905550565b60208082526025908201527f455243313135353a207472616e7366657220746f20746865207a65726f206164604082015264647265737360d81b606082015260800190565b6020808252602a908201527f455243313135353a20696e73756666696369656e742062616c616e636520666f60408201526939103a3930b739b332b960b11b606082015260800190565b8082018082111561030b5761030b6116e1565b6040815260006118d06040830185611527565b82810360208401526118e28185611527565b95945050505050565b6001600160a01b0386811682528516602082015260a06040820181905260009061191790830186611527565b82810360608401526119298186611527565b9050828103608084015261193d818561118b565b98975050505050505050565b60006020828403121561195b57600080fd5b81516110f9816110c3565b600060033d111561197f5760046000803e5060005160e01c5b90565b600060443d10156119905790565b6040516003193d81016004833e81513d67ffffffffffffffff81602484011181841117156119c057505050505090565b82850191508151818111156119d85750505050505090565b843d87010160208285010111156119f25750505050505090565b611a016020828601018761123f565b509095945050505050565b60208082526028908201527f455243313135353a204552433131353552656365697665722072656a656374656040820152676420746f6b656e7360c01b606082015260800190565b6001600160a01b03868116825285166020820152604081018490526060810183905260a060808201819052600090611a8e9083018461118b565b97965050505050505056fea264697066735822122079e5816094a3b7ad64696d84ad14b271ac5d705011b4ee8d380401cfd4d57cbf64736f6c63430008100033",
    "linkReferences": {}
  },
  "methodIdentifiers": {
    "IP()": "18da5649",
    "LICENSE()": "0a912fc4",
    "availableLicenses()": "4563dbb4",
    "balanceOf(address,uint256)": "00fdd58e",
    "balanceOfBatch(address[],uint256[])": "4e1273f4",
    "isApprovedForAll(address,address)": "e985e9c5",
    "owner()": "8da5cb5b",
    "registerWithMarket(uint256,uint256,bool,uint256)": "40c9f51d",
    "safeBatchTransferFrom(address,address,uint256[],uint256[],bytes)": "2eb2c2d6",
    "safeTransferFrom(address,address,uint256,uint256,bytes)": "f242432a",
    "setApprovalForAll(address,bool)": "a22cb465",
    "supportsInterface(bytes4)": "01ffc9a7",
    "updateMetaDataURI(string)": "0581a727",
    "updateWithMarket(uint256,bool,uint256)": "1a498505",
    "uri(uint256)": "0e89341c"
  },
  "id": 26
}