{
  "abi": [
    {
      "inputs": [],
      "stateMutability": "nonpayable",
      "type": "constructor"
    },
    {
      "anonymous": false,
      "inputs": [
        {
          "indexed": true,
          "internalType": "address",
          "name": "owner",
          "type": "address"
        },
        {
          "indexed": true,
          "internalType": "address",
          "name": "spender",
          "type": "address"
        },
        {
          "indexed": false,
          "internalType": "uint256",
          "name": "value",
          "type": "uint256"
        }
      ],
      "name": "Approval",
      "type": "event"
    },
    {
      "anonymous": false,
      "inputs": [
        {
          "indexed": true,
          "internalType": "address",
          "name": "from",
          "type": "address"
        },
        {
          "indexed": true,
          "internalType": "address",
          "name": "to",
          "type": "address"
        },
        {
          "indexed": false,
          "internalType": "uint256",
          "name": "value",
          "type": "uint256"
        }
      ],
      "name": "Transfer",
      "type": "event"
    },
    {
      "inputs": [
        {
          "internalType": "address",
          "name": "owner",
          "type": "address"
        },
        {
          "internalType": "address",
          "name": "spender",
          "type": "address"
        }
      ],
      "name": "allowance",
      "outputs": [
        {
          "internalType": "uint256",
          "name": "",
          "type": "uint256"
        }
      ],
      "stateMutability": "view",
      "type": "function"
    },
    {
      "inputs": [
        {
          "internalType": "address",
          "name": "spender",
          "type": "address"
        },
        {
          "internalType": "uint256",
          "name": "amount",
          "type": "uint256"
        }
      ],
      "name": "approve",
      "outputs": [
        {
          "internalType": "bool",
          "name": "",
          "type": "bool"
        }
      ],
      "stateMutability": "nonpayable",
      "type": "function"
    },
    {
      "inputs": [
        {
          "internalType": "address",
          "name": "account",
          "type": "address"
        }
      ],
      "name": "balanceOf",
      "outputs": [
        {
          "internalType": "uint256",
          "name": "",
          "type": "uint256"
        }
      ],
      "stateMutability": "view",
      "type": "function"
    },
    {
      "inputs": [
        {
          "internalType": "uint256",
          "name": "_amt",
          "type": "uint256"
        }
      ],
      "name": "buy",
      "outputs": [],
      "stateMutability": "payable",
      "type": "function"
    },
    {
      "inputs": [
        {
          "internalType": "uint256",
          "name": "_numOfTokens",
          "type": "uint256"
        }
      ],
      "name": "calculateCost",
      "outputs": [
        {
          "internalType": "uint256",
          "name": "",
          "type": "uint256"
        }
      ],
      "stateMutability": "pure",
      "type": "function"
    },
    {
      "inputs": [],
      "name": "decimals",
      "outputs": [
        {
          "internalType": "uint8",
          "name": "",
          "type": "uint8"
        }
      ],
      "stateMutability": "view",
      "type": "function"
    },
    {
      "inputs": [
        {
          "internalType": "address",
          "name": "spender",
          "type": "address"
        },
        {
          "internalType": "uint256",
          "name": "subtractedValue",
          "type": "uint256"
        }
      ],
      "name": "decreaseAllowance",
      "outputs": [
        {
          "internalType": "bool",
          "name": "",
          "type": "bool"
        }
      ],
      "stateMutability": "nonpayable",
      "type": "function"
    },
    {
      "inputs": [
        {
          "internalType": "address",
          "name": "spender",
          "type": "address"
        },
        {
          "internalType": "uint256",
          "name": "addedValue",
          "type": "uint256"
        }
      ],
      "name": "increaseAllowance",
      "outputs": [
        {
          "internalType": "bool",
          "name": "",
          "type": "bool"
        }
      ],
      "stateMutability": "nonpayable",
      "type": "function"
    },
    {
      "inputs": [],
      "name": "name",
      "outputs": [
        {
          "internalType": "string",
          "name": "",
          "type": "string"
        }
      ],
      "stateMutability": "view",
      "type": "function"
    },
    {
      "inputs": [],
      "name": "symbol",
      "outputs": [
        {
          "internalType": "string",
          "name": "",
          "type": "string"
        }
      ],
      "stateMutability": "view",
      "type": "function"
    },
    {
      "inputs": [],
      "name": "totalSupply",
      "outputs": [
        {
          "internalType": "uint256",
          "name": "",
          "type": "uint256"
        }
      ],
      "stateMutability": "view",
      "type": "function"
    },
    {
      "inputs": [
        {
          "internalType": "address",
          "name": "to",
          "type": "address"
        },
        {
          "internalType": "uint256",
          "name": "amount",
          "type": "uint256"
        }
      ],
      "name": "transfer",
      "outputs": [
        {
          "internalType": "bool",
          "name": "",
          "type": "bool"
        }
      ],
      "stateMutability": "nonpayable",
      "type": "function"
    },
    {
      "inputs": [
        {
          "internalType": "address",
          "name": "from",
          "type": "address"
        },
        {
          "internalType": "address",
          "name": "to",
          "type": "address"
        },
        {
          "internalType": "uint256",
          "name": "amount",
          "type": "uint256"
        }
      ],
      "name": "transferFrom",
      "outputs": [
        {
          "internalType": "bool",
          "name": "",
          "type": "bool"
        }
      ],
      "stateMutability": "nonpayable",
      "type": "function"
    },
    {
      "inputs": [
        {
          "internalType": "uint256",
          "name": "_numberOfTokens",
          "type": "uint256"
        }
      ],
      "name": "withdraw",
      "outputs": [],
      "stateMutability": "nonpayable",
      "type": "function"
    }
  ],
  "bytecode": {
    "object": "0x60a060405266038d7ea4c680006080523480156200001c57600080fd5b50604051806040016040528060088152602001673134b7ba37b5b2b760c11b81525060405180604001604052806002815260200161109560f21b81525081600390816200006a919062000127565b50600462000079828262000127565b505050620001f3565b634e487b7160e01b600052604160045260246000fd5b600181811c90821680620000ad57607f821691505b602082108103620000ce57634e487b7160e01b600052602260045260246000fd5b50919050565b601f8211156200012257600081815260208120601f850160051c81016020861015620000fd5750805b601f850160051c820191505b818110156200011e5782815560010162000109565b5050505b505050565b81516001600160401b0381111562000143576200014362000082565b6200015b8162000154845462000098565b84620000d4565b602080601f8311600181146200019357600084156200017a5750858301515b600019600386901b1c1916600185901b1785556200011e565b600085815260208120601f198616915b82811015620001c457888601518255948401946001909101908401620001a3565b5085821015620001e35787850151600019600388901b60f8161c191681555b5050505050600190811b01905550565b608051610e666200020f60003960006105190152610e666000f3fe6080604052600436106100dd5760003560e01c80634af18f4f1161007f578063a457c2d711610059578063a457c2d714610245578063a9059cbb14610265578063d96a094a14610285578063dd62ed3e1461029857600080fd5b80634af18f4f146101da57806370a08231146101fa57806395d89b411461023057600080fd5b806323b872dd116100bb57806323b872dd1461015c5780632e1a7d4d1461017c578063313ce5671461019e57806339509351146101ba57600080fd5b806306fdde03146100e2578063095ea7b31461010d57806318160ddd1461013d575b600080fd5b3480156100ee57600080fd5b506100f76102b8565b6040516101049190610c44565b60405180910390f35b34801561011957600080fd5b5061012d610128366004610cae565b61034a565b6040519015158152602001610104565b34801561014957600080fd5b506002545b604051908152602001610104565b34801561016857600080fd5b5061012d610177366004610cd8565b610364565b34801561018857600080fd5b5061019c610197366004610d14565b610388565b005b3480156101aa57600080fd5b5060405160128152602001610104565b3480156101c657600080fd5b5061012d6101d5366004610cae565b6104f0565b3480156101e657600080fd5b5061014e6101f5366004610d14565b610512565b34801561020657600080fd5b5061014e610215366004610d2d565b6001600160a01b031660009081526020819052604090205490565b34801561023c57600080fd5b506100f761053e565b34801561025157600080fd5b5061012d610260366004610cae565b61054d565b34801561027157600080fd5b5061012d610280366004610cae565b6105c8565b61019c610293366004610d14565b6105d6565b3480156102a457600080fd5b5061014e6102b3366004610d4f565b610686565b6060600380546102c790610d82565b80601f01602080910402602001604051908101604052809291908181526020018280546102f390610d82565b80156103405780601f1061031557610100808354040283529160200191610340565b820191906000526020600020905b81548152906001019060200180831161032357829003601f168201915b5050505050905090565b6000336103588185856106b1565b60019150505b92915050565b6000336103728582856107d5565b61037d858585610849565b506001949350505050565b6040516370a0823160e01b8152336004820152819030906370a0823190602401602060405180830381865afa1580156103c5573d6000803e3d6000fd5b505050506040513d601f19601f820116820180604052508101906103e99190610dbc565b10156104485760405162461bcd60e51b815260206004820152602360248201527f42696f546f6b656e3a206e6f7420656e6f75676820746f6b656e7320746f2073604482015262195b1b60ea1b60648201526084015b60405180910390fd5b600061045382610512565b9050804710156104b45760405162461bcd60e51b815260206004820152602660248201527f42696f546f6b656e3a206e6f7420656e6f75676820657468657220746f20776960448201526574686472617760d01b606482015260840161043f565b6104be3383610a17565b604051339082156108fc029083906000818181858888f193505050501580156104eb573d6000803e3d6000fd5b505050565b6000336103588185856105038383610686565b61050d9190610deb565b6106b1565b600061035e7f000000000000000000000000000000000000000000000000000000000000000083610dfe565b6060600480546102c790610d82565b6000338161055b8286610686565b9050838110156105bb5760405162461bcd60e51b815260206004820152602560248201527f45524332303a2064656372656173656420616c6c6f77616e63652062656c6f77604482015264207a65726f60d81b606482015260840161043f565b61037d82868684036106b1565b600033610358818585610849565b60006105e182610512565b9050803410156106335760405162461bcd60e51b815260206004820152601c60248201527f42696f546f6b656e3a20696e73756666696369656e7420657468657200000000604482015260640161043f565b61063d3383610b65565b60006106498234610e1d565b9050600181106104eb57604051339082156108fc029083906000818181858888f19350505050158015610680573d6000803e3d6000fd5b50505050565b6001600160a01b03918216600090815260016020908152604080832093909416825291909152205490565b6001600160a01b0383166107135760405162461bcd60e51b8152602060048201526024808201527f45524332303a20617070726f76652066726f6d20746865207a65726f206164646044820152637265737360e01b606482015260840161043f565b6001600160a01b0382166107745760405162461bcd60e51b815260206004820152602260248201527f45524332303a20617070726f766520746f20746865207a65726f206164647265604482015261737360f01b606482015260840161043f565b6001600160a01b0383811660008181526001602090815260408083209487168084529482529182902085905590518481527f8c5be1e5ebec7d5bd14f71427d1e84f3dd0314c0f7b2291e5b200ac8c7c3b925910160405180910390a3505050565b60006107e18484610686565b90506000198114610680578181101561083c5760405162461bcd60e51b815260206004820152601d60248201527f45524332303a20696e73756666696369656e7420616c6c6f77616e6365000000604482015260640161043f565b61068084848484036106b1565b6001600160a01b0383166108ad5760405162461bcd60e51b815260206004820152602560248201527f45524332303a207472616e736665722066726f6d20746865207a65726f206164604482015264647265737360d81b606482015260840161043f565b6001600160a01b03821661090f5760405162461bcd60e51b815260206004820152602360248201527f45524332303a207472616e7366657220746f20746865207a65726f206164647260448201526265737360e81b606482015260840161043f565b6001600160a01b038316600090815260208190526040902054818110156109875760405162461bcd60e51b815260206004820152602660248201527f45524332303a207472616e7366657220616d6f756e7420657863656564732062604482015265616c616e636560d01b606482015260840161043f565b6001600160a01b038085166000908152602081905260408082208585039055918516815290812080548492906109be908490610deb565b92505081905550826001600160a01b0316846001600160a01b03167fddf252ad1be2c89b69c2b068fc378daa952ba7f163c4a11628f55a4df523b3ef84604051610a0a91815260200190565b60405180910390a3610680565b6001600160a01b038216610a775760405162461bcd60e51b815260206004820152602160248201527f45524332303a206275726e2066726f6d20746865207a65726f206164647265736044820152607360f81b606482015260840161043f565b6001600160a01b03821660009081526020819052604090205481811015610aeb5760405162461bcd60e51b815260206004820152602260248201527f45524332303a206275726e20616d6f756e7420657863656564732062616c616e604482015261636560f01b606482015260840161043f565b6001600160a01b0383166000908152602081905260408120838303905560028054849290610b1a908490610e1d565b90915550506040518281526000906001600160a01b038516907fddf252ad1be2c89b69c2b068fc378daa952ba7f163c4a11628f55a4df523b3ef9060200160405180910390a3505050565b6001600160a01b038216610bbb5760405162461bcd60e51b815260206004820152601f60248201527f45524332303a206d696e7420746f20746865207a65726f206164647265737300604482015260640161043f565b8060026000828254610bcd9190610deb565b90915550506001600160a01b03821660009081526020819052604081208054839290610bfa908490610deb565b90915550506040518181526001600160a01b038316906000907fddf252ad1be2c89b69c2b068fc378daa952ba7f163c4a11628f55a4df523b3ef9060200160405180910390a35050565b600060208083528351808285015260005b81811015610c7157858101830151858201604001528201610c55565b506000604082860101526040601f19601f8301168501019250505092915050565b80356001600160a01b0381168114610ca957600080fd5b919050565b60008060408385031215610cc157600080fd5b610cca83610c92565b946020939093013593505050565b600080600060608486031215610ced57600080fd5b610cf684610c92565b9250610d0460208501610c92565b9150604084013590509250925092565b600060208284031215610d2657600080fd5b5035919050565b600060208284031215610d3f57600080fd5b610d4882610c92565b9392505050565b60008060408385031215610d6257600080fd5b610d6b83610c92565b9150610d7960208401610c92565b90509250929050565b600181811c90821680610d9657607f821691505b602082108103610db657634e487b7160e01b600052602260045260246000fd5b50919050565b600060208284031215610dce57600080fd5b5051919050565b634e487b7160e01b600052601160045260246000fd5b8082018082111561035e5761035e610dd5565b6000816000190483118215151615610e1857610e18610dd5565b500290565b8181038181111561035e5761035e610dd556fea2646970667358221220a11a6267c2595bc2ab11228c83e678e5a31070112b15aee861b35f1e125f6adf64736f6c63430008100033",
    "linkReferences": {}
  },
  "methodIdentifiers": {
    "allowance(address,address)": "dd62ed3e",
    "approve(address,uint256)": "095ea7b3",
    "balanceOf(address)": "70a08231",
    "buy(uint256)": "d96a094a",
    "calculateCost(uint256)": "4af18f4f",
    "decimals()": "313ce567",
    "decreaseAllowance(address,uint256)": "a457c2d7",
    "increaseAllowance(address,uint256)": "39509351",
    "name()": "06fdde03",
    "symbol()": "95d89b41",
    "totalSupply()": "18160ddd",
    "transfer(address,uint256)": "a9059cbb",
    "transferFrom(address,address,uint256)": "23b872dd",
    "withdraw(uint256)": "2e1a7d4d"
  },
  "id": 27
}