{
  "abi": [
    {
      "inputs": [
        {
          "internalType": "address",
          "name": "_market",
          "type": "address"
        }
      ],
      "stateMutability": "nonpayable",
      "type": "constructor"
    },
    {
      "inputs": [
        {
          "internalType": "string",
          "name": "_uri",
          "type": "string"
        }
      ],
      "name": "createAsset",
      "outputs": [
        {
          "internalType": "address",
          "name": "",
          "type": "address"
        }
      ],
      "stateMutability": "nonpayable",
      "type": "function"
    }
  ],
  "bytecode": {
    "object": "0x60a060405234801561001057600080fd5b5060405161264838038061264883398101604081905261002f91610040565b6001600160a01b0316608052610070565b60006020828403121561005257600080fd5b81516001600160a01b038116811461006957600080fd5b9392505050565b6080516125be61008a600039600060b901526125be6000f3fe608060405234801561001057600080fd5b506004361061002b5760003560e01c806355b1f24e14610030575b600080fd5b61004361003e366004610123565b61005f565b6040516001600160a01b03909116815260200160405180910390f35b6000336100b25760405162461bcd60e51b815260206004820152601f60248201527f466163746f72793a20696e76616c69642073656e646572206164647265737300604482015260640160405180910390fd5b60003384847f00000000000000000000000000000000000000000000000000000000000000006040516100e490610116565b6100f19493929190610195565b604051809103906000f08015801561010d573d6000803e3d6000fd5b50949350505050565b6123a5806101e483390190565b6000806020838503121561013657600080fd5b823567ffffffffffffffff8082111561014e57600080fd5b818501915085601f83011261016257600080fd5b81358181111561017157600080fd5b86602082850101111561018357600080fd5b60209290920196919550909350505050565b6001600160a01b03858116825260606020830181905282018490526000908486608085013760008386016080908101919091529316604083015250601f909201601f1916909101019291505056fe60806040523480156200001157600080fd5b50604051620023a5380380620023a58339810160408190526200003491620005dc565b8162000040816200009c565b5060016003819055600480546001600160a01b038087166001600160a01b0319928316811790935560058054918616919092161790556040805160208101909152600081526200009392908190620000ae565b505050620009a3565b6002620000aa828262000730565b5050565b6001600160a01b038416620001145760405162461bcd60e51b815260206004820152602160248201527f455243313135353a206d696e7420746f20746865207a65726f206164647265736044820152607360f81b60648201526084015b60405180910390fd5b3360006200012285620001e1565b905060006200013185620001e1565b90506000868152602081815260408083206001600160a01b038b1684529091528120805487929062000165908490620007fc565b909155505060408051878152602081018790526001600160a01b03808a1692600092918716917fc3d58168c5ae7397731d063d5bbf3d657854427343f4c083240f7aacaa2d0f62910160405180910390a4620001c78360008985858962000237565b620001d88360008989898962000297565b50505050505050565b604080516001808252818301909252606091600091906020808301908036833701905050905082816000815181106200021e576200021e62000824565b602090810291909101015292915050565b505050505050565b600160ff168360008151811062000252576200025262000824565b6020026020010151036200022f57600480546001600160a01b0319166001600160a01b038616179055620002898587600062000463565b6200022f8487600162000463565b620002b6846001600160a01b03166200054560201b620008c61760201c565b156200022f5760405163f23a6e6160e01b81526001600160a01b0385169063f23a6e6190620002f2908990899088908890889060040162000868565b6020604051808303816000875af192505050801562000330575060408051601f3d908101601f191682019092526200032d91810190620008af565b60015b620003f0576200033f620008e2565b806308c379a0036200037f575062000356620008ff565b8062000363575062000381565b8060405162461bcd60e51b81526004016200010b91906200098e565b505b60405162461bcd60e51b815260206004820152603460248201527f455243313135353a207472616e7366657220746f206e6f6e204552433131353560448201527f526563656976657220696d706c656d656e74657200000000000000000000000060648201526084016200010b565b6001600160e01b0319811663f23a6e6160e01b14620001d85760405162461bcd60e51b815260206004820152602860248201527f455243313135353a204552433131353552656365697665722072656a656374656044820152676420746f6b656e7360c01b60648201526084016200010b565b816001600160a01b0316836001600160a01b031603620004d85760405162461bcd60e51b815260206004820152602960248201527f455243313135353a2073657474696e6720617070726f76616c20737461747573604482015268103337b91039b2b63360b91b60648201526084016200010b565b6001600160a01b03838116600081815260016020908152604080832094871680845294825291829020805460ff191686151590811790915591519182527f17307eab39ab6107e8899845ad3d59bd9653f200f220920489ca2b5937696c31910160405180910390a3505050565b6001600160a01b03163b151590565b80516001600160a01b03811681146200056c57600080fd5b919050565b634e487b7160e01b600052604160045260246000fd5b601f8201601f191681016001600160401b0381118282101715620005af57620005af62000571565b6040525050565b60005b83811015620005d3578181015183820152602001620005b9565b50506000910152565b600080600060608486031215620005f257600080fd5b620005fd8462000554565b60208501519093506001600160401b03808211156200061b57600080fd5b818601915086601f8301126200063057600080fd5b81518181111562000645576200064562000571565b604051915062000660601f8201601f19166020018362000587565b8082528760208285010111156200067657600080fd5b62000689816020840160208601620005b6565b5092506200069c90506040850162000554565b90509250925092565b600181811c90821680620006ba57607f821691505b602082108103620006db57634e487b7160e01b600052602260045260246000fd5b50919050565b601f8211156200072b57600081815260208120601f850160051c810160208610156200070a5750805b601f850160051c820191505b818110156200022f5782815560010162000716565b505050565b81516001600160401b038111156200074c576200074c62000571565b62000764816200075d8454620006a5565b84620006e1565b602080601f8311600181146200079c5760008415620007835750858301515b600019600386901b1c1916600185901b1785556200022f565b600085815260208120601f198616915b82811015620007cd57888601518255948401946001909101908401620007ac565b5085821015620007ec5787850151600019600388901b60f8161c191681555b5050505050600190811b01905550565b808201808211156200081e57634e487b7160e01b600052601160045260246000fd5b92915050565b634e487b7160e01b600052603260045260246000fd5b6000815180845262000854816020860160208601620005b6565b601f01601f19169290920160200192915050565b6001600160a01b03868116825285166020820152604081018490526060810183905260a060808201819052600090620008a4908301846200083a565b979650505050505050565b600060208284031215620008c257600080fd5b81516001600160e01b031981168114620008db57600080fd5b9392505050565b600060033d1115620008fc5760046000803e5060005160e01c5b90565b600060443d10156200090e5790565b6040516003193d81016004833e81513d6001600160401b0380831160248401831017156200093e57505050505090565b8285019150815181811115620009575750505050505090565b843d8701016020828501011115620009725750505050505090565b620009836020828601018762000587565b509095945050505050565b602081526000620008db60208301846200083a565b6119f280620009b36000396000f3fe608060405234801561001057600080fd5b50600436106100ff5760003560e01c806340c9f51d116100975780638da5cb5b116100665780638da5cb5b14610218578063a22cb46514610233578063e985e9c514610246578063f242432a1461028257600080fd5b806340c9f51d146101ca5780634563dbb4146101dd5780634e1273f4146101e55780636634d7331461020557600080fd5b806318da5649116100d357806318da5649146101875780631a4985051461018f5780631bf4f4e4146101a45780632eb2c2d6146101b757600080fd5b8062fdd58e1461010457806301ffc9a71461012a5780630a912fc41461014d5780630e89341c14610167575b600080fd5b6101176101123660046110c7565b610295565b6040519081526020015b60405180910390f35b61013d61013836600461110a565b61032f565b6040519015158152602001610121565b610155600281565b60405160ff9091168152602001610121565b61017a61017536600461112e565b61037f565b604051610121919061118d565b610155600181565b6101a261019d3660046111b0565b610413565b005b6101a26101b23660046111e5565b6104af565b6101a26101c53660046113a3565b610516565b6101a26101d836600461144d565b6105ad565b61011761068c565b6101f86101f336600461148a565b6106ab565b6040516101219190611590565b6101a26102133660046111e5565b6107d5565b6004546040516001600160a01b039091168152602001610121565b6101a26102413660046115a3565b610830565b61013d6102543660046115d6565b6001600160a01b03918216600090815260016020908152604080832093909416825291909152205460ff1690565b6101a2610290366004611600565b61083f565b60006001600160a01b0383166103065760405162461bcd60e51b815260206004820152602b60248201527f455243313135353a2062616c616e636520717565727920666f7220746865207a60448201526a65726f206164647265737360a81b60648201526084015b60405180910390fd5b506000818152602081815260408083206001600160a01b03861684529091529020545b92915050565b60006001600160e01b03198216636cdb3d1360e11b148061036057506001600160e01b031982166303a24d0760e21b145b8061032957506301ffc9a760e01b6001600160e01b0319831614610329565b60606002805461038e90611665565b80601f01602080910402602001604051908101604052809291908181526020018280546103ba90611665565b80156104075780601f106103dc57610100808354040283529160200191610407565b820191906000526020600020905b8154815290600101906020018083116103ea57829003601f168201915b50505050509050919050565b6004546001600160a01b0316331461043d5760405162461bcd60e51b81526004016102fd9061169f565b600554604051633456b6ab60e21b8152600481018590528315156024820152604481018390526001600160a01b039091169063d15adaac90606401600060405180830381600087803b15801561049257600080fd5b505af11580156104a6573d6000803e3d6000fd5b50505050505050565b6004546001600160a01b031633146104d95760405162461bcd60e51b81526004016102fd9061169f565b7fe42963c4040efe8e42940f68da68425dd0affe5e1f96c1a4e702b5801252fca0828260405161050a9291906116ca565b60405180910390a15050565b6001600160a01b03851633148061053257506105328533610254565b6105995760405162461bcd60e51b815260206004820152603260248201527f455243313135353a207472616e736665722063616c6c6572206973206e6f74206044820152711bdddb995c881b9bdc88185c1c1c9bdd995960721b60648201526084016102fd565b6105a685858585856108d5565b5050505050565b6004546001600160a01b031633146105d75760405162461bcd60e51b81526004016102fd9061169f565b600454604080516020810190915260008152610601916001600160a01b0316906002908790610ac0565b6005546040516322e75a5b60e21b8152600481018590528315156024820152604481018390526001600160a01b0390911690638b9d696c90606401600060405180830381600087803b15801561065657600080fd5b505af115801561066a573d6000803e3d6000fd5b505060055461068692506001600160a01b031690506001610830565b50505050565b6004546000906106a6906001600160a01b03166002610295565b905090565b606081518351146107105760405162461bcd60e51b815260206004820152602960248201527f455243313135353a206163636f756e747320616e6420696473206c656e677468604482015268040dad2e6dac2e8c6d60bb1b60648201526084016102fd565b6000835167ffffffffffffffff81111561072c5761072c611257565b604051908082528060200260200182016040528015610755578160200160208202803683370190505b50905060005b84518110156107cd576107a0858281518110610779576107796116f9565b6020026020010151858381518110610793576107936116f9565b6020026020010151610295565b8282815181106107b2576107b26116f9565b60209081029190910101526107c681611725565b905061075b565b509392505050565b6004546001600160a01b031633146107ff5760405162461bcd60e51b81526004016102fd9061169f565b7fd59e7432de307c865d24dc7ec5e50a150e71f62d83ef324d7f9e737bd1963d87828260405161050a9291906116ca565b61083b338383610bda565b5050565b6001600160a01b03851633148061085b575061085b8533610254565b6108b95760405162461bcd60e51b815260206004820152602960248201527f455243313135353a2063616c6c6572206973206e6f74206f776e6572206e6f7260448201526808185c1c1c9bdd995960ba1b60648201526084016102fd565b6105a68585858585610cba565b6001600160a01b03163b151590565b81518351146109375760405162461bcd60e51b815260206004820152602860248201527f455243313135353a2069647320616e6420616d6f756e7473206c656e677468206044820152670dad2e6dac2e8c6d60c31b60648201526084016102fd565b6001600160a01b03841661095d5760405162461bcd60e51b81526004016102fd9061173e565b3360005b8451811015610a4457600085828151811061097e5761097e6116f9565b60200260200101519050600085838151811061099c5761099c6116f9565b602090810291909101810151600084815280835260408082206001600160a01b038e1683529093529190912054909150818110156109ec5760405162461bcd60e51b81526004016102fd90611783565b6000838152602081815260408083206001600160a01b038e8116855292528083208585039055908b16825281208054849290610a299084906117cd565b9250508190555050505080610a3d90611725565b9050610961565b50846001600160a01b0316866001600160a01b0316826001600160a01b03167f4a39dc06d4c0dbc64b70af90fd698a233a518aa5d07e595d983b8c0526c8f7fb8787604051610a949291906117e0565b60405180910390a4610aaa818787878787610df2565b610ab8818787878787610e4a565b505050505050565b6001600160a01b038416610b205760405162461bcd60e51b815260206004820152602160248201527f455243313135353a206d696e7420746f20746865207a65726f206164647265736044820152607360f81b60648201526084016102fd565b336000610b2c85610fa5565b90506000610b3985610fa5565b90506000868152602081815260408083206001600160a01b038b16845290915281208054879290610b6b9084906117cd565b909155505060408051878152602081018790526001600160a01b03808a1692600092918716917fc3d58168c5ae7397731d063d5bbf3d657854427343f4c083240f7aacaa2d0f62910160405180910390a4610bcb83600089858589610df2565b6104a683600089898989610ff0565b816001600160a01b0316836001600160a01b031603610c4d5760405162461bcd60e51b815260206004820152602960248201527f455243313135353a2073657474696e6720617070726f76616c20737461747573604482015268103337b91039b2b63360b91b60648201526084016102fd565b6001600160a01b03838116600081815260016020908152604080832094871680845294825291829020805460ff191686151590811790915591519182527f17307eab39ab6107e8899845ad3d59bd9653f200f220920489ca2b5937696c31910160405180910390a3505050565b6001600160a01b038416610ce05760405162461bcd60e51b81526004016102fd9061173e565b336000610cec85610fa5565b90506000610cf985610fa5565b90506000868152602081815260408083206001600160a01b038c16845290915290205485811015610d3c5760405162461bcd60e51b81526004016102fd90611783565b6000878152602081815260408083206001600160a01b038d8116855292528083208985039055908a16825281208054889290610d799084906117cd565b909155505060408051888152602081018890526001600160a01b03808b16928c821692918816917fc3d58168c5ae7397731d063d5bbf3d657854427343f4c083240f7aacaa2d0f62910160405180910390a4610dd9848a8a86868a610df2565b610de7848a8a8a8a8a610ff0565b505050505050505050565b600160ff1683600081518110610e0a57610e0a6116f9565b602002602001015103610ab857600480546001600160a01b0319166001600160a01b038616179055610e3e85876000610bda565b610ab884876001610bda565b6001600160a01b0384163b15610ab85760405163bc197c8160e01b81526001600160a01b0385169063bc197c8190610e8e908990899088908890889060040161180e565b6020604051808303816000875af1925050508015610ec9575060408051601f3d908101601f19168201909252610ec69181019061186c565b60015b610f7557610ed5611889565b806308c379a003610f0e5750610ee96118a5565b80610ef45750610f10565b8060405162461bcd60e51b81526004016102fd919061118d565b505b60405162461bcd60e51b815260206004820152603460248201527f455243313135353a207472616e7366657220746f206e6f6e20455243313135356044820152732932b1b2b4bb32b91034b6b83632b6b2b73a32b960611b60648201526084016102fd565b6001600160e01b0319811663bc197c8160e01b146104a65760405162461bcd60e51b81526004016102fd9061192f565b60408051600180825281830190925260609160009190602080830190803683370190505090508281600081518110610fdf57610fdf6116f9565b602090810291909101015292915050565b6001600160a01b0384163b15610ab85760405163f23a6e6160e01b81526001600160a01b0385169063f23a6e61906110349089908990889088908890600401611977565b6020604051808303816000875af192505050801561106f575060408051601f3d908101601f1916820190925261106c9181019061186c565b60015b61107b57610ed5611889565b6001600160e01b0319811663f23a6e6160e01b146104a65760405162461bcd60e51b81526004016102fd9061192f565b80356001600160a01b03811681146110c257600080fd5b919050565b600080604083850312156110da57600080fd5b6110e3836110ab565b946020939093013593505050565b6001600160e01b03198116811461110757600080fd5b50565b60006020828403121561111c57600080fd5b8135611127816110f1565b9392505050565b60006020828403121561114057600080fd5b5035919050565b6000815180845260005b8181101561116d57602081850181015186830182015201611151565b506000602082860101526020601f19601f83011685010191505092915050565b6020815260006111276020830184611147565b803580151581146110c257600080fd5b6000806000606084860312156111c557600080fd5b833592506111d5602085016111a0565b9150604084013590509250925092565b600080602083850312156111f857600080fd5b823567ffffffffffffffff8082111561121057600080fd5b818501915085601f83011261122457600080fd5b81358181111561123357600080fd5b86602082850101111561124557600080fd5b60209290920196919550909350505050565b634e487b7160e01b600052604160045260246000fd5b601f8201601f1916810167ffffffffffffffff8111828210171561129357611293611257565b6040525050565b600067ffffffffffffffff8211156112b4576112b4611257565b5060051b60200190565b600082601f8301126112cf57600080fd5b813560206112dc8261129a565b6040516112e9828261126d565b83815260059390931b850182019282810191508684111561130957600080fd5b8286015b84811015611324578035835291830191830161130d565b509695505050505050565b600082601f83011261134057600080fd5b813567ffffffffffffffff81111561135a5761135a611257565b604051611371601f8301601f19166020018261126d565b81815284602083860101111561138657600080fd5b816020850160208301376000918101602001919091529392505050565b600080600080600060a086880312156113bb57600080fd5b6113c4866110ab565b94506113d2602087016110ab565b9350604086013567ffffffffffffffff808211156113ef57600080fd5b6113fb89838a016112be565b9450606088013591508082111561141157600080fd5b61141d89838a016112be565b9350608088013591508082111561143357600080fd5b506114408882890161132f565b9150509295509295909350565b6000806000806080858703121561146357600080fd5b843593506020850135925061147a604086016111a0565b9396929550929360600135925050565b6000806040838503121561149d57600080fd5b823567ffffffffffffffff808211156114b557600080fd5b818501915085601f8301126114c957600080fd5b813560206114d68261129a565b6040516114e3828261126d565b83815260059390931b850182019282810191508984111561150357600080fd5b948201945b8386101561152857611519866110ab565b82529482019490820190611508565b9650508601359250508082111561153e57600080fd5b5061154b858286016112be565b9150509250929050565b600081518084526020808501945080840160005b8381101561158557815187529582019590820190600101611569565b509495945050505050565b6020815260006111276020830184611555565b600080604083850312156115b657600080fd5b6115bf836110ab565b91506115cd602084016111a0565b90509250929050565b600080604083850312156115e957600080fd5b6115f2836110ab565b91506115cd602084016110ab565b600080600080600060a0868803121561161857600080fd5b611621866110ab565b945061162f602087016110ab565b93506040860135925060608601359150608086013567ffffffffffffffff81111561165957600080fd5b6114408882890161132f565b600181811c9082168061167957607f821691505b60208210810361169957634e487b7160e01b600052602260045260246000fd5b50919050565b60208082526011908201527024a81d103737ba103a34329037bbb732b960791b604082015260600190565b60208152816020820152818360408301376000818301604090810191909152601f909201601f19160101919050565b634e487b7160e01b600052603260045260246000fd5b634e487b7160e01b600052601160045260246000fd5b6000600182016117375761173761170f565b5060010190565b60208082526025908201527f455243313135353a207472616e7366657220746f20746865207a65726f206164604082015264647265737360d81b606082015260800190565b6020808252602a908201527f455243313135353a20696e73756666696369656e742062616c616e636520666f60408201526939103a3930b739b332b960b11b606082015260800190565b808201808211156103295761032961170f565b6040815260006117f36040830185611555565b82810360208401526118058185611555565b95945050505050565b6001600160a01b0386811682528516602082015260a06040820181905260009061183a90830186611555565b828103606084015261184c8186611555565b905082810360808401526118608185611147565b98975050505050505050565b60006020828403121561187e57600080fd5b8151611127816110f1565b600060033d11156118a25760046000803e5060005160e01c5b90565b600060443d10156118b35790565b6040516003193d81016004833e81513d67ffffffffffffffff81602484011181841117156118e357505050505090565b82850191508151818111156118fb5750505050505090565b843d87010160208285010111156119155750505050505090565b6119246020828601018761126d565b509095945050505050565b60208082526028908201527f455243313135353a204552433131353552656365697665722072656a656374656040820152676420746f6b656e7360c01b606082015260800190565b6001600160a01b03868116825285166020820152604081018490526060810183905260a0608082018190526000906119b190830184611147565b97965050505050505056fea26469706673582212205a548012bbee5cafef8da73fefa8f561f9f6747016ac30eaa547bd8ab3a94fab64736f6c63430008100033a2646970667358221220484bffa4092ff2c15b98a51fa4aa4ec5ea8b4e75202e1f111579dd3e04b7497964736f6c63430008100033",
    "linkReferences": {}
  },
  "methodIdentifiers": {
    "createAsset(string)": "55b1f24e"
  },
  "id": 23
}