{
  "abi": [
    {
      "inputs": [
        {
          "internalType": "address",
          "name": "_biotoken",
          "type": "address"
        }
      ],
      "stateMutability": "nonpayable",
      "type": "constructor"
    },
    {
      "anonymous": false,
      "inputs": [
        {
          "indexed": true,
          "internalType": "address",
          "name": "assetAddress",
          "type": "address"
        },
        {
          "indexed": false,
          "internalType": "uint256",
          "name": "licensePrice",
          "type": "uint256"
        },
        {
          "indexed": false,
          "internalType": "uint256",
          "name": "ipPrice",
          "type": "uint256"
        },
        {
          "indexed": false,
          "internalType": "bool",
          "name": "isIPforSale",
          "type": "bool"
        }
      ],
      "name": "AssetRegistered",
      "type": "event"
    },
    {
      "anonymous": false,
      "inputs": [
        {
          "indexed": true,
          "internalType": "address",
          "name": "assetAddress",
          "type": "address"
        },
        {
          "indexed": false,
          "internalType": "uint256",
          "name": "licensePrice",
          "type": "uint256"
        },
        {
          "indexed": false,
          "internalType": "uint256",
          "name": "ipPrice",
          "type": "uint256"
        },
        {
          "indexed": false,
          "internalType": "bool",
          "name": "isIPforSale",
          "type": "bool"
        }
      ],
      "name": "AssetUpdated",
      "type": "event"
    },
    {
      "inputs": [
        {
          "internalType": "address",
          "name": "_asset",
          "type": "address"
        }
      ],
      "name": "buyAsset",
      "outputs": [],
      "stateMutability": "nonpayable",
      "type": "function"
    },
    {
      "inputs": [
        {
          "internalType": "address",
          "name": "_asset",
          "type": "address"
        },
        {
          "internalType": "uint256",
          "name": "_qty",
          "type": "uint256"
        }
      ],
      "name": "buyLicense",
      "outputs": [],
      "stateMutability": "nonpayable",
      "type": "function"
    },
    {
      "inputs": [
        {
          "internalType": "address",
          "name": "_asset",
          "type": "address"
        }
      ],
      "name": "getProduct",
      "outputs": [
        {
          "internalType": "uint256",
          "name": "licensePrice",
          "type": "uint256"
        },
        {
          "internalType": "bool",
          "name": "ipForSale",
          "type": "bool"
        },
        {
          "internalType": "uint256",
          "name": "ipPrice",
          "type": "uint256"
        }
      ],
      "stateMutability": "view",
      "type": "function"
    },
    {
      "inputs": [
        {
          "internalType": "uint256",
          "name": "_licensePrice",
          "type": "uint256"
        },
        {
          "internalType": "bool",
          "name": "_isIPforSale",
          "type": "bool"
        },
        {
          "internalType": "uint256",
          "name": "_ipPrice",
          "type": "uint256"
        }
      ],
      "name": "registerAsset",
      "outputs": [],
      "stateMutability": "nonpayable",
      "type": "function"
    },
    {
      "inputs": [
        {
          "internalType": "uint256",
          "name": "_licensePrice",
          "type": "uint256"
        },
        {
          "internalType": "bool",
          "name": "_isIPforSale",
          "type": "bool"
        },
        {
          "internalType": "uint256",
          "name": "_ipPrice",
          "type": "uint256"
        }
      ],
      "name": "updateAsset",
      "outputs": [],
      "stateMutability": "nonpayable",
      "type": "function"
    }
  ],
  "bytecode": {
    "object": "0x60a060405234801561001057600080fd5b506040516112ee3803806112ee83398101604081905261002f91610045565b60016000556001600160a01b0316608052610075565b60006020828403121561005757600080fd5b81516001600160a01b038116811461006e57600080fd5b9392505050565b6080516112496100a5600039600081816103c1015281816104870152818161074201526108dc01526112496000f3fe608060405234801561001057600080fd5b50600436106100575760003560e01c806343b1c0a11461005c57806386bb5a48146100715780638b9d696c14610084578063d15adaac14610097578063d9aba9ce146100aa575b600080fd5b61006f61006a366004611033565b61010d565b005b61006f61007f36600461105f565b610582565b61006f61009236600461108a565b610ab3565b61006f6100a536600461108a565b610be5565b6100ee6100b836600461105f565b6001600160a01b031660009081526001602081905260409091209081015481546002909201549092600160a01b90920460ff1691565b6040805193845291151560208401529082015260600160405180910390f35b6002600054036101645760405162461bcd60e51b815260206004820152601f60248201527f5265656e7472616e637947756172643a207265656e7472616e742063616c6c0060448201526064015b60405180910390fd5b60026000556001600160a01b0382166101bb5760405162461bcd60e51b81526020600482015260196024820152784d61726b65743a20626164204173736574206164647265737360381b604482015260640161015b565b6001600160a01b0382811660008181526001602081815260409283902083516080810185528154968716808252600160a01b90970460ff161515928101929092529182015492810192909252600201546060820152339290911461025d5760405162461bcd60e51b815260206004820152601960248201527813585c9ad95d0e881c1c9bd91d58dd081b9bdd08199bdd5b99603a1b604482015260640161015b565b600083826040015161026f91906110c2565b905060008260000151905084816001600160a01b0316634563dbb46040518163ffffffff1660e01b8152600401602060405180830381865afa1580156102b9573d6000803e3d6000fd5b505050506040513d601f19601f820116820180604052508101906102dd91906110ef565b10156103395760405162461bcd60e51b815260206004820152602560248201527f4d61726b65743a206e6f7420656e6f756768206c6963656e73657320617661696044820152646c61626c6560d81b606482015260840161015b565b6000816001600160a01b0316638da5cb5b6040518163ffffffff1660e01b8152600401602060405180830381865afa158015610379573d6000803e3d6000fd5b505050506040513d601f19601f8201168201806040525081019061039d9190611108565b6040516370a0823160e01b81526001600160a01b03878116600483015291925084917f000000000000000000000000000000000000000000000000000000000000000016906370a0823190602401602060405180830381865afa158015610408573d6000803e3d6000fd5b505050506040513d601f19601f8201168201806040525081019061042c91906110ef565b101561047a5760405162461bcd60e51b815260206004820152601e60248201527f4d61726b65743a20696e73756666696369656e742062696f746f6b656e730000604482015260640161015b565b6104af6001600160a01b037f000000000000000000000000000000000000000000000000000000000000000016868386610d61565b816001600160a01b031663f242432a8287856001600160a01b0316630a912fc46040518163ffffffff1660e01b8152600401602060405180830381865afa1580156104fe573d6000803e3d6000fd5b505050506040513d601f19601f820116820180604052508101906105229190611125565b8a6040518563ffffffff1660e01b81526004016105429493929190611148565b600060405180830381600087803b15801561055c57600080fd5b505af1158015610570573d6000803e3d6000fd5b50506001600055505050505050505050565b6002600054036105d45760405162461bcd60e51b815260206004820152601f60248201527f5265656e7472616e637947756172643a207265656e7472616e742063616c6c00604482015260640161015b565b60026000556001600160a01b03811661062b5760405162461bcd60e51b81526020600482015260196024820152784d61726b65743a20626164204173736574206164647265737360381b604482015260640161015b565b6001600160a01b0381811660008181526001602081815260409283902083516080810185528154968716808252600160a01b90970460ff16151592810192909252918201549281019290925260020154606082015233929091146106cd5760405162461bcd60e51b815260206004820152601960248201527813585c9ad95d0e881c1c9bd91d58dd081b9bdd08199bdd5b99603a1b604482015260640161015b565b806020015161071e5760405162461bcd60e51b815260206004820152601d60248201527f4d61726b65743a204173736574206973206e6f7420666f722073616c65000000604482015260640161015b565b60608101516040516370a0823160e01b81526001600160a01b0384811660048301527f000000000000000000000000000000000000000000000000000000000000000016906370a0823190602401602060405180830381865afa158015610789573d6000803e3d6000fd5b505050506040513d601f19601f820116820180604052508101906107ad91906110ef565b10156107fb5760405162461bcd60e51b815260206004820152601e60248201527f4d61726b65743a20696e73756666696369656e742062696f746f6b656e730000604482015260640161015b565b6000816000015190506000816001600160a01b0316638da5cb5b6040518163ffffffff1660e01b8152600401602060405180830381865afa158015610844573d6000803e3d6000fd5b505050506040513d601f19601f820116820180604052508101906108689190611108565b90506000826001600160a01b0316634563dbb46040518163ffffffff1660e01b8152600401602060405180830381865afa1580156108aa573d6000803e3d6000fd5b505050506040513d601f19601f820116820180604052508101906108ce91906110ef565b9050610914858386606001517f00000000000000000000000000000000000000000000000000000000000000006001600160a01b0316610d61909392919063ffffffff16565b80156109e057826001600160a01b031663f242432a8387866001600160a01b0316630a912fc46040518163ffffffff1660e01b8152600401602060405180830381865afa158015610969573d6000803e3d6000fd5b505050506040513d601f19601f8201168201806040525081019061098d9190611125565b856040518563ffffffff1660e01b81526004016109ad9493929190611148565b600060405180830381600087803b1580156109c757600080fd5b505af11580156109db573d6000803e3d6000fd5b505050505b826001600160a01b031663f242432a8387866001600160a01b03166318da56496040518163ffffffff1660e01b8152600401602060405180830381865afa158015610a2f573d6000803e3d6000fd5b505050506040513d601f19601f82011682018060405250810190610a539190611125565b60016040518563ffffffff1660e01b8152600401610a749493929190611148565b600060405180830381600087803b158015610a8e57600080fd5b505af1158015610aa2573d6000803e3d6000fd5b505060016000555050505050505050565b3380610af75760405162461bcd60e51b81526020600482015260136024820152724d61726b65743a20626164206164647265737360681b604482015260640161015b565b6001600160a01b038082166000908152600160205260409020805490911615610b625760405162461bcd60e51b815260206004820152601e60248201527f4d61726b65743a2070726f6475637420616c7265616479206578697374730000604482015260640161015b565b80546001600160a01b0383166001600160a81b03199091168117600160a01b86151590810291909117835560028301859055600183018790556040805188815260208101879052908101919091527ff5e7a25d28b8e8ac920b7e0548d4b2809d2c7cac337241eef1c307353fb1bfb7906060015b60405180910390a25050505050565b3380610c295760405162461bcd60e51b81526020600482015260136024820152724d61726b65743a20626164206164647265737360681b604482015260640161015b565b6001600160a01b0380821660009081526001602052604090208054909116610c935760405162461bcd60e51b815260206004820152601d60248201527f4d61726b65743a2070726f6475637420646f65736e2774206578697374000000604482015260640161015b565b80546001600160a01b03838116911614610cef5760405162461bcd60e51b815260206004820152601d60248201527f4d61726b65743a206e6f74207468652070726f64756374206f776e6572000000604482015260640161015b565b805460ff60a01b1916600160a01b85151590810291909117825560028201849055600182018690556040805187815260208101869052908101919091526001600160a01b038316907fedf2c236817148b85d597e7009455b7d66b60cf47d0363dc7a6e2b7950bd76a190606001610bd6565b604080516001600160a01b0385811660248301528416604482015260648082018490528251808303909101815260849091019091526020810180516001600160e01b03166323b872dd60e01b179052610dbb908590610dc1565b50505050565b6000610e16826040518060400160405280602081526020017f5361666545524332303a206c6f772d6c6576656c2063616c6c206661696c6564815250856001600160a01b0316610e989092919063ffffffff16565b805190915015610e935780806020019051810190610e349190611183565b610e935760405162461bcd60e51b815260206004820152602a60248201527f5361666545524332303a204552433230206f7065726174696f6e20646964206e6044820152691bdd081cdd58d8d9595960b21b606482015260840161015b565b505050565b6060610ea78484600085610eb1565b90505b9392505050565b606082471015610f125760405162461bcd60e51b815260206004820152602660248201527f416464726573733a20696e73756666696369656e742062616c616e636520666f6044820152651c8818d85b1b60d21b606482015260840161015b565b6001600160a01b0385163b610f695760405162461bcd60e51b815260206004820152601d60248201527f416464726573733a2063616c6c20746f206e6f6e2d636f6e7472616374000000604482015260640161015b565b600080866001600160a01b03168587604051610f8591906111c4565b60006040518083038185875af1925050503d8060008114610fc2576040519150601f19603f3d011682016040523d82523d6000602084013e610fc7565b606091505b5091509150610fd7828286610fe2565b979650505050505050565b60608315610ff1575081610eaa565b8251156110015782518084602001fd5b8160405162461bcd60e51b815260040161015b91906111e0565b6001600160a01b038116811461103057600080fd5b50565b6000806040838503121561104657600080fd5b82356110518161101b565b946020939093013593505050565b60006020828403121561107157600080fd5b8135610eaa8161101b565b801515811461103057600080fd5b60008060006060848603121561109f57600080fd5b8335925060208401356110b18161107c565b929592945050506040919091013590565b60008160001904831182151516156110ea57634e487b7160e01b600052601160045260246000fd5b500290565b60006020828403121561110157600080fd5b5051919050565b60006020828403121561111a57600080fd5b8151610eaa8161101b565b60006020828403121561113757600080fd5b815160ff81168114610eaa57600080fd5b6001600160a01b03948516815292909316602083015260ff166040820152606081019190915260a06080820181905260009082015260c00190565b60006020828403121561119557600080fd5b8151610eaa8161107c565b60005b838110156111bb5781810151838201526020016111a3565b50506000910152565b600082516111d68184602087016111a0565b9190910192915050565b60208152600082518060208401526111ff8160408501602087016111a0565b601f01601f1916919091016040019291505056fea2646970667358221220db5888abe7e899734dbc2051c6ad58c6adfd61a4644d00f06ef6cee85db529e164736f6c63430008100033",
    "linkReferences": {}
  },
  "methodIdentifiers": {
    "buyAsset(address)": "86bb5a48",
    "buyLicense(address,uint256)": "43b1c0a1",
    "getProduct(address)": "d9aba9ce",
    "registerAsset(uint256,bool,uint256)": "8b9d696c",
    "updateAsset(uint256,bool,uint256)": "d15adaac"
  },
  "id": 25
}